:100000000C9465000C9477090C94A4090C948D0051
:100010000C948D000C948D000C948D000C948D002C
:100020000C948D000C948D000C948D000C94D603D0
:100030000C948D000C948D000C948D000C948D000C
:100040000C94E0090C948D000C9413060C945A0641
:100050000C948D000C948D000C948D000C948D00EC
:100060000C948D000C948D000000000024002700EB
:100070002A0000000000250028002B0000000000DE
:1000800023002600290004040404040404040202DA
:100090000202020203030303030301020408102007
:1000A0004080010204081020010204081020000012
:1000B0000007000201000003040600000000000029
:1000C0000000E000AA02FB04D10711241FBECFEFFD
:1000D000D8E0DEBFCDBF11E0A0E0B1E0E4E6F7E19B
:1000E00002C005900D92AE33B107D9F712E0AEE32E
:1000F000B1E001C01D92A833B107E1F710E0CAECEE
:10010000D0E004C02297FE010E94AC0BC23CD10794
:10011000C9F70E94D1090C94B00B0C940000BF9257
:10012000CF92DF92EF92FF920F931F93CF93DF93C3
:100130006C017A01B22E8B01C0E0D0E013C0F60151
:10014000A681B781ED91FC9111970190F081E02D8E
:10015000CD01D8016D918D010995F701EC0FFD1FBF
:1001600080832196CB1558F3DF91CF911F910F918A
:10017000FF90EF90DF90CF90BF900895EF92FF92A5
:100180000F931F93CF93DF937C01042FEB0110E0BB
:100190000EC0D7011696ED91FC911797A081B18101
:1001A0002D913C91CF016991F90109951F5F1017BD
:1001B00080F3DF91CF911F910F91FF90EF90089501
:1001C00085E08093410188E080933F0187E0809340
:1001D000400181E08093420180E1809343011092CD
:1001E0004501109244010895FC01828160E00E9463
:1001F000E20A0895FC01828161E00E94E20A08950A
:100200000F931F938C010E94F400F801A681B7811F
:10021000ED91FC9111970190F081E02DCD0162EEFE
:100220000995C8010E94FA001F910F910895CF927D
:10023000DF92EF92FF920F931F938C01F62E6A01CB
:10024000E22E0E94F400F801A681B781ED91FC91A5
:1002500011978FE1F82280E2F82A0190F081E02DD9
:10026000CD016F2D0995C801B6014E2D0E94BE002B
:10027000C8010E94FA001F910F91FF90EF90DF904C
:10028000CF900895CF92DF92EF92FF920F931F933A
:100290008C01F62E6A01E22E0E94F400F801A6817C
:1002A000B781ED91FC9111978FE1F8220190F081D7
:1002B000E02DCD016F2D0995C801B601A6012E2DA7
:1002C0000E948F00C8010E94FA001F910F91FF90B9
:1002D000EF90DF90CF900895DF93CF930F92CDB73B
:1002E000DEB767E0AE014F5F5F4F21E00E94420141
:1002F00089810F90CF91DF910895DF93CF930F9273
:10030000CDB7DEB767E1AE014F5F5F4F21E00E94DE
:100310004201898181700F90CF91DF910895CF9331
:10032000DF93EC010E946C0186FF02C091E005C0E2
:10033000CE010E947D0191E09827892FDF91CF9116
:100340000895EF92FF920F931F937C01162F042FB5
:100350000E94F400F701A681B781ED91FC911197FD
:100360001F7110620190F081E02DCD01612F099580
:10037000F701A681B781ED91FC9111970190F08171
:10038000E02DCD01602F0995C7010E94FA001F9151
:100390000F91FF90EF900895EF92FF920F931F93AC
:1003A0008C017B010E94F400F801A681B781ED91D8
:1003B000FC9111970190F081E02DCD0161E6099546
:1003C000C801B701A701F80125810E948F00C8016B
:1003D0000E94FA00C80167E040E40E94A1011F9159
:1003E0000F91FF90EF900895FC01818160E00E94E1
:1003F000E20A0895FC01818161E00E94E20A089509
:100400000F931F938C01FC0110820E94F401C8011C
:1004100060E04BE00E94A101C8010E94FA01C801FE
:1004200067E040E30E94A1011F910F910895CF93CF
:10043000DF93EC018881882359F0CE010E946C0182
:10044000807311F481E004C0CE010E94000280E0BC
:10045000DF91CF9108950F931F938C0165E0F80110
:1004600044810E94A101C80161E1F80145810E9417
:10047000A101C80162E1F80145810E94A101C80102
:100480000E940002C8010E9400011F910F9108956F
:10049000EF92FF920F931F938C017B010E94F40156
:1004A000C8016BE0A70125E00E941701C8010E9466
:1004B000FA011F910F91FF90EF9008950F931F93F2
:1004C0008C01FC01838160E00E94E20A6AE070E036
:1004D00080E090E00E94280AF801838161E00E9498
:1004E000E20A6AE070E080E090E00E94280A1F9132
:1004F0000F9108950F931F938C01FC01838161E09C
:100500000E94BC0AF801818161E00E94BC0AF801E6
:10051000828161E00E94BC0AC8010E945E02C8019B
:100520000E94F401C8010E94FA00F801A681B78177
:10053000ED91FC9111970280F381E02DCD01099599
:100540001F910F9108956EBD0DB407FEFDCF8EB5BE
:100550000895089588E291E09093470180934601C1
:1005600008950E94D00280E00E94BA0281E00E94B9
:10057000BF0208959CB5937F982B9CBD08952CB520
:10058000382F33702C7F322B3CBD2DB590E09595E4
:1005900087959595879581702E7F822B8DBD0895C7
:1005A0008DE061E00E94BC0A8BE061E00E94BC0A21
:1005B0008AE061E00E94BC0A8DE060E00E94E20AED
:1005C0008BE060E00E94E20A8AE061E00E94E20AB9
:1005D0008CB580618CBD8CB580648CBD0895FC01A8
:1005E000809148018C3090F480838F5F8093480124
:1005F000815090E0FC01EE0FFF1FE80FF91FE75B51
:10060000FE4F88EB9BE09283818308958FEF808378
:100610000895FC0120812C3008F041C08181992788
:1006200087FD909548E850E0481B590B440F551F33
:10063000440F551F6417750784F08281992787FD41
:10064000909548E552E0481B590B440F551F440F45
:10065000551F641775070CF4AB0142505040CA0196
:10066000AA2797FDA095BA2F74E0880F991FAA1F9B
:10067000BB1F7A95D1F763E0B695A79597958795B7
:100680006A95D1F74FB7F89430E0F901EE0FFF1FEC
:10069000E20FF31FE75BFE4F928381834FBF089504
:1006A000CF92DF92EF92FF921F93CF93DF93EC01F3
:1006B000162F7A01690188818C3008F064C0862F7A
:1006C00061E00E94BC0A888190E0FC01EE0FFF1FF0
:1006D000E80FF91FE75BFE4F1F738081807C812B41
:1006E000808380E292E08E199F0964E070E00E94AE
:1006F000610B698380E699E08C199D0964E070E0E4
:100700000E94610B6A83A8818A2F6CE00E94550BBE
:10071000682F70E0AB01440F551F460F571F440F61
:10072000551F440F551F20E030E0C901840F951F6D
:10073000FC01EE0FFF1FE80FF91FE75BFE4F808102
:1007400086FD15C02F5F3F4F2C30310571F724C057
:100750001092800082E080938100109285001092B8
:100760008400B19A80916F00826080936F008A2F1D
:1007700090E0FC01EE0FFF1FE80FF91FE75BFE4F53
:100780008081806480838881DF91CF911F91FF9069
:10079000EF90DF90CF900895672BD1F2E8CF40E241
:1007A00052E020E639E00E94500308951F920F9214
:1007B0000FB60F9211242F933F934F935F936F9334
:1007C0007F938F939F93AF93BF93EF93FF9380910A
:1007D0006D0187FF05C010928500109284002BC028
:1007E00020916D01332727FD30958091480190E0DD
:1007F0002817390704F580916D01992787FD909599
:10080000FC01EE0FFF1FE80FF91FE75BFE4F808131
:1008100086FF11C080916D01992787FD9095FC019D
:10082000EE0FFF1FE80FF91FE75BFE4F80818F730C
:1008300060E00E94E20A80916D018F5F80936D01FC
:1008400020916D01332727FD30958091480190E07C
:10085000281739070CF04EC080916D018C300CF0D8
:1008600049C0209184003091850080916D019927C5
:1008700087FD9095FC01EE0FFF1FE80FF91FE75B66
:10088000FE4F81819281280F391F30938900209378
:10089000880080916D01992787FD9095FC01EE0FEE
:1008A000FF1FE80FF91FE75BFE4F808186FF2AC01C
:1008B00080916D01992787FD9095FC01EE0FFF1F38
:1008C000E80FF91FE75BFE4F80818F7361E00E94A4
:1008D000E20A18C080E49CE905C0809184009091F0
:1008E0008500049690938900809388008FEF809311
:1008F0006D0108C0809184009091850084549C49CA
:1009000048F3EBCFFF91EF91BF91AF919F918F9102
:100910007F916F915F914F913F912F910F900FBEFB
:100920000F901F901895CF93DF93EC018EE391E029
:100930000E941702882371F48EE391E00E948F01D8
:10094000882341F08EE391E0BE010E94CC0121E0BA
:1009500030E002C020E030E0C901DF91CF9108957E
:10096000CF92DF92EF92FF920F931F937C01C62EDE
:10097000D42E84E061E00E94BC0A84E060E00E9422
:10098000E20A64E670E080E090E00E94280A84E0D9
:1009900061E00E94E20A64E670E080E090E00E947C
:1009A000280A88E080933F0189E08093400186E433
:1009B00091E090934501809344010EE311E0C8015A
:1009C0000E947A02C801B7010E944802D0924301F6
:1009D000C0924201C8010E942B021F910F91FF900B
:1009E000EF90DF90CF90089581E090E090937701B1
:1009F00080937601089588E791E00E94EF028BE7EB
:100A000091E00E94EF028EE791E00E94EF0281E800
:100A100091E00E94EF02089560916E0170916F0164
:100A200088E791E00E940903609170017091710163
:100A30008BE791E00E94090360917201709173014C
:100A40008EE791E00E940903609174017091750135
:100A500081E891E00E940903089590936F018093CB
:100A60006E01909371018093700190937301809354
:100A7000720190937501809374010E940C05089592
:100A8000DF93CF9300D00F92CDB7DEB7CE010196A2
:100A90000E949304892B09F449C089818233F1F0C3
:100AA00083332CF4803361F0813339F510C0833304
:100AB000E1F0813611F58A819B810E942D051DC0D0
:100AC0008A819B8190936F0180936E0114C08A810B
:100AD0009B8190937101809370010DC08A819B81ED
:100AE000909373018093720106C08A819B819093D9
:100AF0007501809374010E940C058CE092E060E027
:100B000071E00E943E096A817B818CE092E04AE0BC
:100B100050E00E942B098CE092E068E071E00E94B6
:100B20003E098CE092E069810E944B0864E670E027
:100B300080E090E00E94280A0F900F900F90CF91D4
:100B4000DF91089588E791E06CEB72E00E94090361
:100B50008BE791E06CEB72E00E9409038EE791E075
:100B60006CEB72E00E94090381E891E06CEB72E0AB
:100B70000E9409038CEB92E090936F0180936E01C9
:100B8000909371018093700190937301809372012F
:100B90009093750180937401089588E791E063E074
:100BA00070E00E94CF038BE791E065E070E00E9467
:100BB000CF038EE791E066E070E00E94CF0381E80A
:100BC00091E06AE070E00E94CF030E94A20568EC09
:100BD00070E080E090E00E94280A08950F931F9330
:100BE0000CE012E0C80140E855E260E070E00E94CD
:100BF000A3060E94CD0581E191E06CE670E043E040
:100C000050E00E94B00480E064EF74E040E050E007
:100C10000E945409C80167E171E00E9441091F91D7
:100C20000F91089508951F920F920FB60F921124FD
:100C30002F933F934F938F939F93EF93FF93409105
:100C4000C6002091C4013091C5012F5F3F4F2F7323
:100C500030708091C6019091C7012817390759F06B
:100C6000E091C401F091C501EC57FE4F40833093F1
:100C7000C5012093C401FF91EF919F918F914F91F6
:100C80003F912F910F900FBE0F901F901895E091FC
:100C90001802F0911902E05CFF4F8191919120813F
:100CA0003181821B930B8F739070892B11F00E94FE
:100CB000120608951F920F920FB60F9211242F93D0
:100CC0003F934F935F936F937F938F939F93AF93D4
:100CD000BF93EF93FF932091080230910902809116
:100CE0000A0290910B022817390731F48091C10054
:100CF0008F7D8093C10016C0E0910A02F0910B0233
:100D0000E853FE4F408180910A0290910B020196B8
:100D100060E470E00E94610B90930B0280930A02E2
:100D20004093C600FF91EF91BF91AF919F918F913A
:100D30007F916F915F914F913F912F910F900FBED7
:100D40000F901F901895AF92BF92DF92EF92FF9293
:100D50000F931F93CF93DF93EC017A018B01DD2476
:100D6000403081EE580780E0680780E0780711F096
:100D7000DD24D39491E0A92EB12CEC89FD89DD20EE
:100D800069F0C5010E8C02C0880F991F0A94E2F722
:100D9000808360E079E08DE390E005C0108260E838
:100DA00074E88EE190E0A80197010E94740B215035
:100DB000304040405040569547953795279580E103
:100DC0002030380720F0DD2011F0DD24D6CFE8896F
:100DD000F9893083EA89FB892083EE89FF89408184
:100DE00021E030E0C9010A8C02C0880F991F0A94E3
:100DF000E2F7482B4083EE89FF894081C9010B8CC3
:100E000002C0880F991F0A94E2F7482B4083EE89AD
:100E1000FF894081C9010C8C02C0880F991F0A9478
:100E2000E2F7482B4083EE89FF8980810D8C02C058
:100E3000220F331F0A94E2F7209528232083DF91A5
:100E4000CF911F910F91FF90EF90DF90BF90AF90E7
:100E50000895DC011C96ED91FC911D97E05CFF4F1D
:100E60002191319180819181281B390B2F73307032
:100E7000C9010895DC011C96ED91FC911D97E05C81
:100E8000FF4F20813181E054F040DF01AE5BBF4F66
:100E90008D919C9111972817390719F42FEF3FEF87
:100EA00007C08D919C91E80FF91F8081282F30E0B9
:100EB000C9010895DC011C96ED91FC911D97E05C41
:100EC000FF4F20813181E054F040DF01AE5BBF4F26
:100ED0008D919C9111972817390719F42FEF3FEF47
:100EE00010C08D919C911197E80FF91F20818D9171
:100EF0009C91119701968F73907011969C938E938D
:100F000030E0C9010895FC0186859785DC01A05C6D
:100F1000BF4FFC01EE5BFF4F2D913C9111978081FB
:100F2000918128173907C1F70895CF93DF93EC011A
:100F3000462FEE85FF85E05CFF4F80819181E05474
:100F4000F040019660E470E00E94610B9C01DF01BB
:100F5000AE5BBF4F8D919C91119728173907D1F344
:100F6000E05CFF4F80819181E054F040E80FF91F71
:100F70004083EE85FF85E05CFF4F31832083EE895F
:100F8000FF89208181E090E00D8C02C0880F991FBD
:100F90000A94E2F7282B208381E090E0DF91CF9143
:100FA000089510920F0210920E0288EE93E0A0E0D6
:100FB000B0E08093100290931102A0931202B093BC
:100FC000130282E391E090930D0280930C0284E877
:100FD00091E0909319028093180288EC91E090932D
:100FE0001B0280931A0285EC90E090931D0280937F
:100FF0001C0284EC90E090931F0280931E0280EC10
:1010000090E0909321028093200281EC90E09093F5
:1010100023028093220286EC90E090932502809335
:10102000240284E08093260283E08093270287E0F5
:101030008093280285E08093290281E080932A0230
:101040000895CF92DF92EF92FF920F931F93CF9369
:10105000DF937C016B018A01C0E0D0E00FC0D601B4
:101060006D916D01D701ED91FC910190F081E02D22
:10107000C7010995C80FD91F01501040011511056E
:1010800071F7CE01DF91CF911F910F91FF90EF90FB
:10109000DF90CF900895DC01ED91FC910190F081FB
:1010A000E02D09950895EF92FF920F931F938C0105
:1010B000DC01ED91FC910190F081E02D6DE009954E
:1010C0007C01D801ED91FC910190F081E02DC801E7
:1010D0006AE009959C012E0D3F1DC9011F910F91DA
:1010E000FF90EF900895CF93DF93DB010D900020E8
:1010F000E9F71197A61BB70BEC01E881F981028093
:10110000F381E02DAD010995DF91CF9108954F92C4
:101110005F927F928F929F92AF92BF92CF92DF9217
:10112000EF92FF920F931F93DF93CF93CDB7DEB76C
:10113000A1970FB6F894DEBF0FBECDBF2C01742E61
:10114000CB01223008F42AE019A231E2C32ED12CBF
:10115000CC0EDD1E822E9924AA24BB24672D752F68
:10116000A50194010E94740B79018A01C801B7019D
:10117000A50194010E94360B472D461B0894C10817
:10118000D1084A3014F4405D01C0495CF601408347
:10119000E114F1040105110521F07E2C5F2DC80139
:1011A000DDCFC201B6010E947308A1960FB6F89474
:1011B000DEBF0FBECDBFCF91DF911F910F91FF908A
:1011C000EF90DF90CF90BF90AF909F908F907F90E7
:1011D0005F904F900895CF92DF92EF92FF920F931E
:1011E0001F93CF93DF93EC016A017B012115310539
:1011F00041F4E881F9810190F081E02D642F099597
:101200001FC02A303105D1F477FF17C0E881F9817A
:101210000190F081E02D6DE209958C01442755275E
:10122000BA014C195D096E097F09CE012AE00E94BE
:1012300087089801280F391F04C02AE00E948708F8
:101240009C01C901DF91CF911F910F91FF90EF9009
:10125000DF90CF900895EF92FF920F931F937B0141
:101260009A010027F7FC0095102FB801A7010E94F2
:10127000EB081F910F91FF90EF9008950E94730863
:101280000895EF92FF920F931F937C010E947308C1
:101290008C01C7010E945308080F191FC8011F9134
:1012A0000F91FF90EF900895823000F5E82FF0E065
:1012B000EE0FFF1FE55DFD4F71836083882319F0FA
:1012C0008130A1F408C0809169008C7F842B8093C9
:1012D0006900E89A089580916900440F551F440FF2
:1012E000551F837F842B80936900E99A08951F928C
:1012F0000F920FB60F9211242F933F934F935F934A
:101300006F937F938F939F93AF93BF93EF93FF93CD
:1013100080912B0290912C02892B29F0E0912B02D5
:10132000F0912C020995FF91EF91BF91AF919F91A0
:101330008F917F916F915F914F913F912F910F907E
:101340000FBE0F901F9018951F920F920FB60F921D
:1013500011242F933F934F935F936F937F938F93BA
:101360009F93AF93BF93EF93FF9380912D02909142
:101370002E02892B29F0E0912D02F0912E02099581
:10138000FF91EF91BF91AF919F918F917F916F915D
:101390005F914F913F912F910F900FBE0F901F9033
:1013A0001895CF93DF930E94810A0E94EE05C7E44F
:1013B000D6E00E9440052097E1F30E944706F9CF4E
:1013C0001F920F920FB60F9211242F933F938F937A
:1013D0009F93AF93BF938091330290913402A09179
:1013E0003502B0913602309137020196A11DB11D30
:1013F000232F2D5F2D3720F02D570196A11DB11DF4
:10140000209337028093330290933402A0933502E5
:10141000B093360280912F0290913002A091310258
:10142000B09132020196A11DB11D80932F029093BD
:101430003002A0933102B0933202BF91AF919F91DD
:101440008F913F912F910F900FBE0F901F90189585
:101450009B01AC017FB7F89480912F0290913002EC
:10146000A0913102B091320266B5A89B05C06F3FD2
:1014700019F00196A11DB11D7FBFBA2FA92F982F7A
:101480008827860F911DA11DB11D62E0880F991F4D
:10149000AA1FBB1F6A95D1F7BC012DC0FFB7F894F6
:1014A00080912F0290913002A0913102B0913202CE
:1014B000E6B5A89B05C0EF3F19F00196A11DB11D2F
:1014C000FFBFBA2FA92F982F88278E0F911DA11D1E
:1014D000B11DE2E0880F991FAA1FBB1FEA95D1F743
:1014E000861B970B885E9340C8F2215030404040E5
:1014F000504068517C4F211531054105510571F669
:101500000895789484B5826084BD84B5816084BD7B
:1015100085B5826085BD85B5816085BDEEE6F0E06C
:10152000808181608083E1E8F0E0108280818260C8
:101530008083808181608083E0E8F0E08081816049
:101540008083E1EBF0E0808184608083E0EBF0E079
:10155000808181608083EAE7F0E08081846080831D
:1015600080818260808380818160808380818068C7
:1015700080831092C1000895482F50E0CA0186561A
:101580009F4FFC0124914A575F4FFA0184918823B1
:10159000C1F0E82FF0E0EE0FFF1FE859FF4FA591D3
:1015A000B491662341F49FB7F8948C9120958223DF
:1015B0008C939FBF08959FB7F8948C91822B8C9346
:1015C0009FBF0895482F50E0CA0182559F4FFC01EC
:1015D0002491CA0186569F4FFC0194914A575F4F50
:1015E000FA013491332309F440C0222351F123300E
:1015F00071F0243028F42130A1F0223011F514C00C
:101600002630B1F02730C1F02430D9F404C08091E5
:1016100080008F7703C0809180008F7D8093800051
:1016200010C084B58F7702C084B58F7D84BD09C09A
:101630008091B0008F7703C08091B0008F7D809340
:10164000B000E32FF0E0EE0FFF1FEE58FF4FA59123
:10165000B4912FB7F894662321F48C919095892347
:1016600002C08C91892B8C932FBF0895629FD0016B
:10167000739FF001829FE00DF11D649FE00DF11D4D
:10168000929FF00D839FF00D749FF00D659FF00DFC
:101690009927729FB00DE11DF91F639FB00DE11DE9
:1016A000F91FBD01CF0111240895991B79E004C0F1
:1016B000991F961708F0961B881F7A95C9F7809591
:1016C000089597FB092E07260AD077FD04D02ED067
:1016D00006D000201AF4709561957F4F0895F6F7B3
:1016E000909581959F4F0895A1E21A2EAA1BBB1BCE
:1016F000FD010DC0AA1FBB1FEE1FFF1FA217B307DE
:10170000E407F50720F0A21BB30BE40BF50B661FF3
:10171000771F881F991F1A9469F7609570958095B7
:1017200090959B01AC01BD01CF010895AA1BBB1B85
:1017300051E107C0AA1FBB1FA617B70710F0A61BD1
:10174000B70B881F991F5A95A9F780959095BC01F2
:10175000CD010895EE0FFF1F0590F491E02D09943F
:04176000F894FFCF2B
:1017640073706565643A2000206D6F746F723A205F
:1017740000636F707472004C697374656E696E6790
:101784002E2E2E0000000000A302B102A9020000C8
:0E17940000009507210829075A073A07830726
:00000001FF
