:100000000C9465000C949C090C94C9090C948D0007
:100010000C948D000C948D000C948D000C948D002C
:100020000C948D000C948D000C948D000C94D603D0
:100030000C948D000C948D000C948D000C948D000C
:100040000C94050A0C948D000C9428060C946F06F1
:100050000C948D000C948D000C948D000C948D00EC
:100060000C948D000C948D000000000024002700EB
:100070002A0000000000250028002B0000000000DE
:1000800023002600290004040404040404040202DA
:100090000202020203030303030301020408102007
:1000A0004080010204081020010204081020000012
:1000B0000007000201000003040600000000000029
:1000C0000000E000AA02FB04E60711241FBECFEFE8
:1000D000D8E0DEBFCDBF11E0A0E0B1E0EEEAF7E18D
:1000E00002C005900D92A434B107D9F712E0A4E440
:1000F000B1E001C01D92AE33B107E1F710E0CAECE8
:10010000D0E004C02297FE010E94D10BC23CD1076F
:10011000C9F70E94F6090C94D50B0C940000BF920D
:10012000CF92DF92EF92FF920F931F93CF93DF93C3
:100130006C017A01B22E8B01C0E0D0E013C0F60151
:10014000A681B781ED91FC9111970190F081E02D8E
:10015000CD01D8016D918D010995F701EC0FFD1FBF
:1001600080832196CB1558F3DF91CF911F910F918A
:10017000FF90EF90DF90CF90BF900895EF92FF92A5
:100180000F931F93CF93DF937C01042FEB0110E0BB
:100190000EC0D7011696ED91FC911797A081B18101
:1001A0002D913C91CF016991F90109951F5F1017BD
:1001B00080F3DF91CF911F910F91FF90EF90089501
:1001C00085E08093470188E08093450187E0809334
:1001D000460181E08093480180E1809349011092BB
:1001E0004B0110924A010895FC01828160E00E9457
:1001F000070B0895FC01828161E00E94070B0895BE
:100200000F931F938C010E94F400F801A681B7811F
:10021000ED91FC9111970190F081E02DCD0162EEFE
:100220000995C8010E94FA001F910F910895CF927D
:10023000DF92EF92FF920F931F938C01F62E6A01CB
:10024000E22E0E94F400F801A681B781ED91FC91A5
:1002500011978FE1F82280E2F82A0190F081E02DD9
:10026000CD016F2D0995C801B6014E2D0E94BE002B
:10027000C8010E94FA001F910F91FF90EF90DF904C
:10028000CF900895CF92DF92EF92FF920F931F933A
:100290008C01F62E6A01E22E0E94F400F801A6817C
:1002A000B781ED91FC9111978FE1F8220190F081D7
:1002B000E02DCD016F2D0995C801B601A6012E2DA7
:1002C0000E948F00C8010E94FA001F910F91FF90B9
:1002D000EF90DF90CF900895DF93CF930F92CDB73B
:1002E000DEB767E0AE014F5F5F4F21E00E94420141
:1002F00089810F90CF91DF910895DF93CF930F9273
:10030000CDB7DEB767E1AE014F5F5F4F21E00E94DE
:100310004201898181700F90CF91DF910895CF9331
:10032000DF93EC010E946C0186FF02C091E005C0E2
:10033000CE010E947D0191E09827892FDF91CF9116
:100340000895EF92FF920F931F937C01162F042FB5
:100350000E94F400F701A681B781ED91FC911197FD
:100360001F7110620190F081E02DCD01612F099580
:10037000F701A681B781ED91FC9111970190F08171
:10038000E02DCD01602F0995C7010E94FA001F9151
:100390000F91FF90EF900895EF92FF920F931F93AC
:1003A0008C017B010E94F400F801A681B781ED91D8
:1003B000FC9111970190F081E02DCD0161E6099546
:1003C000C801B701A701F80125810E948F00C8016B
:1003D0000E94FA00C80167E040E40E94A1011F9159
:1003E0000F91FF90EF900895FC01818160E00E94E1
:1003F000070B0895FC01818161E00E94070B0895BD
:100400000F931F938C01FC0110820E94F401C8011C
:1004100060E04BE00E94A101C8010E94FA01C801FE
:1004200067E040E30E94A1011F910F910895CF93CF
:10043000DF93EC018881882359F0CE010E946C0182
:10044000807311F481E004C0CE010E94000280E0BC
:10045000DF91CF9108950F931F938C0165E0F80110
:1004600044810E94A101C80161E1F80145810E9417
:10047000A101C80162E1F80145810E94A101C80102
:100480000E940002C8010E9400011F910F9108956F
:10049000EF92FF920F931F938C017B010E94F40156
:1004A000C8016BE0A70125E00E941701C8010E9466
:1004B000FA011F910F91FF90EF9008950F931F93F2
:1004C0008C01FC01838160E00E94070B6AE070E010
:1004D00080E090E00E944D0AF801838161E00E9473
:1004E000070B6AE070E080E090E00E944D0A1F91E7
:1004F0000F9108950F931F938C01FC01838161E09C
:100500000E94E10AF801818161E00E94E10AF8019C
:10051000828161E00E94E10AC8010E945E02C80176
:100520000E94F401C8010E94FA00F801A681B78177
:10053000ED91FC9111970280F381E02DCD01099599
:100540001F910F9108956EBD0DB407FEFDCF8EB5BE
:10055000089508958EE291E090934D0180934C01AF
:1005600008950E94D00280E00E94BA0281E00E94B9
:10057000BF0208959CB5937F982B9CBD08952CB520
:10058000382F33702C7F322B3CBD2DB590E09595E4
:1005900087959595879581702E7F822B8DBD0895C7
:1005A0008DE061E00E94E10A8BE061E00E94E10AD7
:1005B0008AE061E00E94E10A8DE060E00E94070BA2
:1005C0008BE060E00E94070B8AE061E00E94070B6D
:1005D0008CB580618CBD8CB580648CBD0895FC01A8
:1005E00080914E018C3090F480838F5F80934E0118
:1005F000815090E0FC01EE0FFF1FE80FF91FE15B57
:10060000FE4F88EB9BE09283818308958FEF808378
:100610000895FC0120812C3008F041C08181992788
:1006200087FD909548E850E0481B590B440F551F33
:10063000440F551F6417750784F08281992787FD41
:10064000909548E552E0481B590B440F551F440F45
:10065000551F641775070CF4AB0142505040CA0196
:10066000AA2797FDA095BA2F44E0880F991FAA1FCB
:10067000BB1F4A95D1F733E0B695A7959795879517
:100680003A95D1F74FB7F89430E0F901EE0FFF1F1C
:10069000E20FF31FE15BFE4F928381834FBF08950A
:1006A000CF92DF92EF92FF921F93CF93DF93EC01F3
:1006B000162F7A01690188818C3008F064C0862F7A
:1006C00061E00E94E10A888190E0FC01EE0FFF1FCB
:1006D000E80FF91FE15BFE4F1F738081807C812B47
:1006E000808380E292E08E199F0964E070E00E94AE
:1006F000860B698380E699E08C199D0964E070E0BF
:100700000E94860B6A83A8818A2F6CE00E947A0B74
:10071000682F90E0AC01440F551F480F591F440F3C
:10072000551F440F551F20E030E0C901840F951F6D
:10073000FC01EE0FFF1FE80FF91FE15BFE4F808108
:1007400086FD15C02F5F3F4F2C30310571F724C057
:100750001092800082E080938100109285001092B8
:100760008400B19A80916F00826080936F008A2F1D
:1007700090E0FC01EE0FFF1FE80FF91FE15BFE4F59
:100780008081806480838881DF91CF911F91FF9069
:10079000EF90DF90CF9008956623D1F2E8CF40E24A
:1007A00052E020E639E00E94500308951F920F9214
:1007B0000FB60F9211242F933F934F935F936F9334
:1007C0007F938F939F93AF93BF93EF93FF9380910A
:1007D000730187FF05C010928500109284002BC022
:1007E00020917301332727FD309580914E0190E0D1
:1007F0002817390704F580917301992787FD909593
:10080000FC01EE0FFF1FE80FF91FE15BFE4F808137
:1008100086FF11C080917301992787FD9095FC0197
:10082000EE0FFF1FE80FF91FE15BFE4F80818F7312
:1008300060E00E94070B809173018F5F80937301CA
:1008400020917301332727FD309580914E0190E070
:10085000281739070CF04EC0809173018C300CF0D2
:1008600049C02091840030918500809173019927BF
:1008700087FD9095FC01EE0FFF1FE80FF91FE15B6C
:10088000FE4F81819281280F391F30938900209378
:10089000880080917301992787FD9095FC01EE0FE8
:1008A000FF1FE80FF91FE15BFE4F808186FF2AC022
:1008B00080917301992787FD9095FC01EE0FFF1F32
:1008C000E80FF91FE15BFE4F80818F7361E00E94AA
:1008D000070B18C080E49CE905C0809184009091CA
:1008E0008500049690938900809388008FEF809311
:1008F000730108C0809184009091850084549C49C4
:1009000048F3EBCFFF91EF91BF91AF919F918F9102
:100910007F916F915F914F913F912F910F900FBEFB
:100920000F901F901895CF93DF93EC0184E491E032
:100930000E941702882371F484E491E00E948F01E1
:10094000882341F084E491E0BE010E94CC0121E0C3
:1009500030E002C020E030E0C901DF91CF9108957E
:10096000CF92DF92EF92FF920F931F937C01C62EDE
:10097000D42E84E061E00E94E10A84E060E00E94FD
:10098000070B64E670E080E090E00E944D0A84E08E
:1009900061E00E94070B64E670E080E090E00E9456
:1009A0004D0A88E08093450189E0809346018CE4FC
:1009B00091E090934B0180934A0104E411E0C80157
:1009C0000E947A02C801B7010E944802D0924901F0
:1009D000C0924801C8010E942B021F910F91FF9005
:1009E000EF90DF90CF90089581E090E090937D01AB
:1009F00080937C0108958EE791E00E94EF0281E8E8
:100A000091E00E94EF0284E891E00E94EF0287E803
:100A100091E00E94EF020895609174017091750158
:100A20008EE791E00E940903609176017091770151
:100A300081E891E00E940903609178017091790149
:100A400084E891E00E94090360917A0170917B0132
:100A500087E891E00E9409030895909375018093BF
:100A6000740190937701809376019093790180933C
:100A7000780190937B0180937A010E940C05089580
:100A8000DF93CF9300D000D00F92CDB7DEB7CE0169
:100A900001960E949304892B09F45BC089818333FA
:100AA000B9F184333CF4813329F1823354F5803336
:100AB000B9F519C0833649F0863771F0813681F572
:100AC0008A819B810E942D052BC08A819B819093F6
:100AD00075018093740117C08A819B81909377017F
:100AE0008093760117C08A819B81909375018093D2
:100AF000740114C08A819B81909377018093760161
:100B00000DC08A819B81909379018093780106C002
:100B10008A819B8190937B0180937A010E940C05CE
:100B200082E192E066E071E00E9463096A817B8164
:100B300082E192E04AE050E00E94500982E192E0B6
:100B40006EE071E00E94630982E192E069810E9497
:100B5000800864E670E080E090E00E944D0A0F900B
:100B60000F900F900F900F90CF91DF9108958EE727
:100B700091E06CEB72E00E94090381E891E06CEB7C
:100B800072E00E94090384E891E06CEB72E00E943D
:100B9000090387E891E06CEB72E00E9409038CEB9B
:100BA00092E0909375018093740190937701809304
:100BB0007601909379018093780190937B018093E3
:100BC0007A0108958EE791E063E070E00E94CF0320
:100BD00081E891E065E070E00E94CF0384E891E055
:100BE00066E070E00E94CF0387E891E06AE070E081
:100BF0000E94CF030E94B70568EC70E080E090E0AF
:100C00000E944D0A08950F931F9302E112E0C8015C
:100C100040E855E260E070E00E94B8060E94E205FC
:100C200087E191E06CE670E045E050E00E94B0049E
:100C300080E064EF74E040E050E00E947909C80170
:100C40006DE171E00E9466091F910F91089508956A
:100C50001F920F920FB60F9211242F933F934F9331
:100C60008F939F93EF93FF934091C6002091CA0109
:100C70003091CB012F5F3F4F2F7330708091CC01AB
:100C80009091CD012817390759F0E091CA01F091F0
:100C9000CB01E657FE4F40833093CB012093CA012E
:100CA000FF91EF919F918F914F913F912F910F90D5
:100CB0000FBE0F901F901895E0911E02F0911F0239
:100CC000E05CFF4F8191919120813181821B930BD8
:100CD0008F739070892B11F00E94270608951F9240
:100CE0000F920FB60F9211242F933F934F935F9360
:100CF0006F937F938F939F93AF93BF93EF93FF93E4
:100D000020910E0230910F028091100290911102F9
:100D10002817390731F48091C1008F7D8093C1007D
:100D200016C0E0911002F0911102E253FE4F408193
:100D30008091100290911102019660E470E00E948F
:100D4000860B90931102809310024093C600FF918E
:100D5000EF91BF91AF919F918F917F916F915F9133
:100D60004F913F912F910F900FBE0F901F901895AC
:100D7000AF92BF92DF92EF92FF920F931F93CF93A8
:100D8000DF93EC017A018B01DD24403081EE5807BE
:100D900080E0680780E0780711F0DD24D39491E0CB
:100DA000A92EB12CEC89FD89DD2069F0C5010E8CDE
:100DB00002C0880F991F0A94E2F7808360E079E00F
:100DC0008DE390E005C0108260E874E88EE190E069
:100DD000A80197010E94990B21503040404050409B
:100DE000569547953795279580E12030380720F0B4
:100DF000DD2011F0DD24D6CFE889F9893083EA8936
:100E0000FB892083EE89FF89408121E030E0C90120
:100E10000A8C02C0880F991F0A94E2F7482B40837E
:100E2000EE89FF894081C9010B8C02C0880F991F90
:100E30000A94E2F7482B4083EE89FF894081C9017B
:100E40000C8C02C0880F991F0A94E2F7482B40834C
:100E5000EE89FF8980810D8C02C0220F331F0A9416
:100E6000E2F7209528232083DF91CF911F910F91E6
:100E7000FF90EF90DF90BF90AF900895DC011C963B
:100E8000ED91FC911D97E05CFF4F219131918081A4
:100E90009181281B390B2F733070C9010895DC0133
:100EA0001C96ED91FC911D97E05CFF4F20813181F4
:100EB000E054F040DF01AE5BBF4F8D919C911197E4
:100EC0002817390719F42FEF3FEF07C08D919C9138
:100ED000E80FF91F8081282F30E0C9010895DC0157
:100EE0001C96ED91FC911D97E05CFF4F20813181B4
:100EF000E054F040DF01AE5BBF4F8D919C911197A4
:100F00002817390719F42FEF3FEF10C08D919C91EE
:100F10001197E80FF91F20818D919C9111970196EF
:100F20008F73907011969C938E9330E0C901089551
:100F3000FC0186859785DC01A05CBF4FFC01EE5B60
:100F4000FF4F2D913C91119780819181281739078E
:100F5000C1F70895CF93DF93EC01462FEE85FF850F
:100F6000E05CFF4F80819181E054F040019660E4A5
:100F700070E00E94860B9C01DF01AE5BBF4F8D913C
:100F80009C91119728173907D1F3E05CFF4F8081BE
:100F90009181E054F040E80FF91F4083EE85FF8512
:100FA000E05CFF4F31832083EE89FF89208181E05F
:100FB00090E00D8C02C0880F991F0A94E2F7282B4D
:100FC000208381E090E0DF91CF9108951092150287
:100FD0001092140288EE93E0A0E0B0E08093160235
:100FE00090931702A0931802B093190288E391E03E
:100FF00090931302809312028AE891E090931F026B
:1010000080931E028EEC91E0909321028093200247
:1010100085EC90E0909323028093220284EC90E090
:10102000909325028093240280EC90E09093270215
:101030008093260281EC90E090932902809328020D
:1010400086EC90E090932B0280932A0284E08093B8
:101050002C0283E080932D0287E080932E0285E0AE
:1010600080932F0281E0809330020895CF92DF9227
:10107000EF92FF920F931F93CF93DF937C016B014D
:101080008A01C0E0D0E00FC0D6016D916D01D7019B
:10109000ED91FC910190F081E02DC7010995C80FF9
:1010A000D91F015010400115110571F7CE01DF91D4
:1010B000CF911F910F91FF90EF90DF90CF90089507
:1010C000EF92FF920F931F938C01DC01ED91FC9145
:1010D0000190F081E02D6DE009957C01D801ED9142
:1010E000FC910190F081E02DC8016AE009959C0116
:1010F0002E0D3F1DC9011F910F91FF90EF90089594
:10110000EF92FF920F931F937C01DC01ED91FC9114
:101110000190F081E02D09958C01C7010E946008C3
:10112000080F191FC8011F910F91FF90EF900895AC
:10113000CF93DF93DB010D900020E9F71197A61BF9
:10114000B70BEC01E881F9810280F381E02DAD015C
:101150000995DF91CF9108954F925F927F928F9280
:101160009F92AF92BF92CF92DF92EF92FF920F9336
:101170001F93DF93CF93CDB7DEB7A1970FB6F89447
:10118000DEBF0FBECDBF2C01742ECB01223008F480
:101190002AE019A231E2C32ED12CCC0EDD1E822E04
:1011A0009924AA24BB24672D752FA50194010E94C0
:1011B000990B79018A01C801B701A50194010E9428
:1011C0005B0B472D461B0894C108D1084A3014F424
:1011D000405D01C0495CF6014083E114F104010562
:1011E000110521F07E2C5F2DC801DDCFC201B601B3
:1011F0000E949808A1960FB6F894DEBF0FBECDBF2F
:10120000CF91DF911F910F91FF90EF90DF90CF90E2
:10121000BF90AF909F908F907F905F904F90089578
:10122000CF92DF92EF92FF920F931F93CF93DF93B2
:10123000EC016A017B012115310541F4E881F98156
:101240000190F081E02D642F09951FC02A303105EF
:10125000D1F477FF17C0E881F9810190F081E02D8A
:101260006DE209958C0144275527BA014C195D0997
:101270006E097F09CE012AE00E94AC089801280F70
:10128000391F04C02AE00E94AC089C01C901DF910B
:10129000CF911F910F91FF90EF90DF90CF90089525
:1012A000EF92FF920F931F937B019A010027F7FCA7
:1012B0000095102FB801A7010E9410091F910F91EE
:1012C000FF90EF9008950E9498080895EF92FF9282
:1012D0000F931F937C010E9498088C01C7010E9404
:1012E0006008080F191FC8011F910F91FF90EF9020
:1012F0000895823000F5E82FF0E0EE0FFF1FEF5C5D
:10130000FD4F71836083882319F08130A1F408C0F8
:10131000809169008C7F842B80936900E89A0895FE
:1013200080916900440F551F440F551F837F842B04
:1013300080936900E99A08951F920F920FB60F9259
:1013400011242F933F934F935F936F937F938F93CA
:101350009F93AF93BF93EF93FF938091310290914E
:101360003202892B29F0E0913102F0913202099585
:10137000FF91EF91BF91AF919F918F917F916F916D
:101380005F914F913F912F910F900FBE0F901F9043
:1013900018951F920F920FB60F9211242F933F931F
:1013A0004F935F936F937F938F939F93AF93BF936D
:1013B000EF93FF938091330290913402892B29F0AF
:1013C000E0913302F09134020995FF91EF91BF91C2
:1013D000AF919F918F917F916F915F914F913F91CD
:1013E0002F910F900FBE0F901F901895CF93DF9302
:1013F0000E94A60A0E940306CCE5D6E00E944005A2
:101400002097E1F30E945C06F9CF1F920F920FB66E
:101410000F9211242F933F938F939F93AF93BF937A
:101420008091390290913A02A0913B02B0913C0226
:1014300030913D020196A11DB11D232F2D5F2D3747
:1014400020F02D570196A11DB11D20933D028093E0
:10145000390290933A02A0933B02B0933C028091F0
:10146000350290913602A0913702B0913802019670
:10147000A11DB11D8093350290933602A0933702CF
:10148000B0933802BF91AF919F918F913F912F916F
:101490000F900FBE0F901F9018959B01AC017FB766
:1014A000F8948091350290913602A0913702B09164
:1014B000380266B5A89B05C06F3F19F00196A11DC3
:1014C000B11D7FBFBA2FA92F982F8827860F911D96
:1014D000A11DB11D62E0880F991FAA1FBB1F6A954D
:1014E000D1F7BC012DC0FFB7F894809135029091DF
:1014F0003602A0913702B0913802E6B5A89B05C02C
:10150000EF3F19F00196A11DB11DFFBFBA2FA92F02
:10151000982F88278E0F911DA11DB11DE2E0880F25
:10152000991FAA1FBB1FEA95D1F7861B970B885EF0
:101530009340C8F2215030404040504068517C4FA9
:10154000211531054105510571F60895789484B54A
:10155000826084BD84B5816084BD85B5826085BDAF
:1015600085B5816085BDEEE6F0E080818160808395
:10157000E1E8F0E010828081826080838081816078
:101580008083E0E8F0E0808181608083E1EBF0E03F
:10159000808184608083E0EBF0E0808181608083E3
:1015A000EAE7F0E0808184608083808182608083CC
:1015B0008081816080838081806880831092C100F7
:1015C0000895482F50E0CA0186569F4FFC01249190
:1015D0004A575F4FFA0184918823C1F0E82FF0E069
:1015E000EE0FFF1FE859FF4FA591B491662341F418
:1015F0009FB7F8948C91209582238C939FBF089578
:101600009FB7F8948C91822B8C939FBF0895482F9D
:1016100050E0CA0182559F4FFC012491CA018656B1
:101620009F4FFC0194914A575F4FFA013491332345
:1016300009F440C0222351F1233071F0243028F402
:101640002130A1F0223011F514C02630B1F027303E
:10165000C1F02430D9F404C0809180008F7703C09A
:10166000809180008F7D8093800010C084B58F773B
:1016700002C084B58F7D84BD09C08091B0008F7792
:1016800003C08091B0008F7D8093B000E32FF0E025
:10169000EE0FFF1FEE58FF4FA591B4912FB7F894AE
:1016A000662321F48C919095892302C08C91892B1B
:1016B0008C932FBF0895629FD001739FF001829F8A
:1016C000E00DF11D649FE00DF11D929FF00D839FD1
:1016D000F00D749FF00D659FF00D9927729FB00D6E
:1016E000E11DF91F639FB00DE11DF91FBD01CF0181
:1016F00011240895991B79E004C0991F961708F0EA
:10170000961B881F7A95C9F78095089597FB092E37
:1017100007260AD077FD04D02ED006D000201AF478
:10172000709561957F4F0895F6F7909581959F4F3D
:101730000895A1E21A2EAA1BBB1BFD010DC0AA1F12
:10174000BB1FEE1FFF1FA217B307E407F50720F02A
:10175000A21BB30BE40BF50B661F771F881F991FA5
:101760001A9469F760957095809590959B01AC01EE
:10177000BD01CF010895AA1BBB1B51E107C0AA1FE1
:10178000BB1FA617B70710F0A61BB70B881F991F22
:101790005A95A9F780959095BC01CD010895EE0F5B
:0E17A000FF1F0590F491E02D0994F894FFCFFF
:1017AE0062617373730073706565643A2000206D17
:1017BE006F746F723A2000636F707472004C6973AD
:1017CE0074656E696E672E2E2E0000000000A30257
:1017DE00B102A90200000000AA0736083E076F07F3
:0417EE004F07980702
:00000001FF
