:100000000C9482000C94AA000C94AA000C94AA00F0
:100010000C94AA000C94AA000C94AA000C94AA00B8
:100020000C94AA000C94AA000C94AA000C94AA00A8
:100030000C94AA000C94AA000C94AA000C94AA0098
:100040000C94810C0C94AA000C9467080C94AE08D4
:100050000C94AA000C94AA000C94AA000C94AA0078
:100060000C94AA000C94AA000000000024002700B1
:100070002A0000000000250028002B0000000000DE
:1000800023002600290004040404040404040202DA
:100090000202020203030303030301020408102007
:1000A0004080010204081020010204081020000012
:1000B0000007000201000003040600000000000029
:1000C0000000494E46494E4954594E414ECDCCCC84
:1000D0003D0AD7233C17B7D13877CC2B329595E61C
:1000E000241FB14F0A000020410000C84200401CFC
:1000F0004620BCBE4CCA1B0E5AAEC59D74004803B8
:100100007905250A11241FBECFEFD8E0DEBFCDBF91
:1001100011E0A0E0B1E0ECE5F1E202C005900D9243
:10012000A63BB107D9F712E0A6EBB1E001C01D92E2
:10013000A437B107E1F710E0C4E0D1E004C0229792
:10014000FE010E946610CE3FD107C9F70E94720CD3
:100150000C94AC100C940000662777270C94B00028
:10016000A0E0B0E0E6EBF0E00C947B10EC015B016A
:100170006115710519F0FB0191838083F9908F2D32
:1001800090E00E946A10892BC9F7FDE2FF1621F466
:10019000F990EE24E39405C02BE2F21609F4F990ED
:1001A000EE248E0101501040C80162EC70E043E083
:1001B00050E00E941002892B01F58E010E5F1F4F47
:1001C000C80165EC70E045E050E00E941002892B08
:1001D00019F48E01095F1F4FA114B10419F0F50144
:1001E00011830083E0FC04C070E090E080E814C05C
:1001F00070E090E080E86FEF08C1C8016AEC70E041
:1002000043E050E00E941002892B69F4A114B1046C
:1002100029F470E090E080EC6FE7F7C02296F501DA
:10022000D183C083F6CF8824992440E050E060E079
:1002300070E0EF2DE053EA30A0F5F2E0EF2A8E2DCA
:1002400090E09C0128703070E2FE06C0232B79F507
:100250000894811C911C2BC0232B19F00894810851
:100260009108DB01CA0112E0880F991FAA1FBB1F6A
:100270001A95D1F7480F591F6A1F7B1F440F551F4E
:10028000661F771F4E0F511D611D711D483929E9E9
:10029000520729E9620729E1720748F084E0E82A59
:1002A00006C0EE3F31F4E3FC39C098E0E92AF9904A
:1002B000C0CFE53311F0E53189F529912D3219F4DC
:1002C000E0E1EE2A05C02B3219F081E090E003C096
:1002D000299182E090E0E22FE053EA3018F0C81B49
:1002E000D90B1CC020E030E0FCE020383F075CF474
:1002F000C901880F991F880F991F280F391F220FD6
:10030000331F2E0F311DE991E053EA3068F3E4FE0C
:1003100003C0309521953F4F820E931ECE2CDD24D5
:10032000E1FE07C0A114B10421F02197F501D183AA
:10033000C083CB01BA010E94E70E7B018C01F3E080
:10034000CF22DD2423E0C216D10421F417FB10953F
:1003500017F9109557016801C801B70120E030E096
:1003600040E050E00E944A0E882309F44AC097FEFC
:100370000DC021EEE22E20E0F22E9094819491089F
:100380009394C0E2D0E000E010E012C099EFE92EB3
:1003900090E0F92EF6CFF7012591359145915491D2
:1003A000C601B5010E94990F5B016C018C1A9D0A70
:1003B0008C169D0684F7D595C7950F5F1F4F0630A5
:1003C000110529F08CEF9FEFE80EF91EF1CFC50162
:1003D000D6017C018D018C2D880F8D2D881F8F3FBC
:1003E00051F0C601B50120E030E040E050E00E944D
:1003F0004A0E882331F482E290E090937302809356
:1004000072027E2D9F2D802F612F272F392F482F8D
:10041000562FB901CA01CDB7DEB7ECE00C949710A6
:10042000FB01DC014150504088F08D9181341CF07B
:100430008B350CF4805E659161341CF06B350CF4E7
:10044000605E861B611171F3990B0895881BFCCFC8
:10045000AF92BF92CF92DF92EF92FF920F931F93D2
:10046000CF93DF938C01EB010E94C90C5B016C01FF
:10047000780100E010E00EC00E94C90C6A197B09E7
:100480008C099D09E616F7060807190718F420E0FD
:1004900030E00DC086EB91E00E940D04882361F3EB
:1004A00086EB91E0BE010E94530421E030E0C901D7
:1004B000DF91CF911F910F91FF90EF90DF90CF9040
:1004C000BF90AF9008950F931F938C0186EB91E03E
:1004D0000E94AA0386EB91E0B8010E94CF0486EB4C
:1004E00091E00E949E048823D1F764E170E080E0EF
:1004F00090E00E94D70C1F910F910895CF92DF9248
:10050000EF92FF920F931F937C01C62ED42E84E0AE
:1005100061E00E946B0D84E060E00E94910D69E152
:1005200070E080E090E00E94D70C84E061E00E94DF
:10053000910D69E170E080E090E00E94D70C88E0C6
:100540008093B70189E08093B8018EEB91E090939E
:10055000BD018093BC0106EB11E0C8010E94490572
:10056000C801B7010E941705D092BB01C092BA0121
:10057000C8010E94B2041F910F91FF90EF90DF908D
:10058000CF9008959CB5937F982B9CBD08952CB572
:10059000382F33702C7F322B3CBD2DB590E09595D4
:1005A00087959595879581702E7F822B8DBD0895B7
:1005B0008DE061E00E946B0D8BE061E00E946B0DAD
:1005C0008AE061E00E946B0D8DE060E00E94910D79
:1005D0008BE060E00E94910D8AE061E00E94910D45
:1005E0008CB580618CBD8CB580648CBD0895BF9244
:1005F000CF92DF92EF92FF920F931F93CF93DF93EF
:100600006C017A01B22E8B01C0E0D0E013C0F6017C
:10061000A681B781ED91FC9111970190F081E02DB9
:10062000CD01D8016D918D010995F701EC0FFD1FEA
:1006300080832196CB1558F3DF91CF911F910F91B5
:10064000FF90EF90DF90CF90BF900895EF92FF92D0
:100650000F931F93CF93DF937C01042FEB0110E0E6
:100660000EC0D7011696ED91FC911797A081B1812C
:100670002D913C91CF016991F90109951F5F1017E8
:1006800080F3DF91CF911F910F91FF90EF9008952C
:1006900085E08093B90188E08093B70187E080937B
:1006A000B80181E08093BA0180E18093BB01109290
:1006B000BD011092BC010895FC01828160E00E949E
:1006C000910D0895FC01828161E00E94910D0895D1
:1006D0000F931F938C010E945C03F801A681B781E0
:1006E000ED91FC9111970190F081E02DCD0162EE2A
:1006F0000995C8010E9462031F910F910895CF923E
:10070000DF92EF92FF920F931F938C01F62E6A01F6
:10071000E22E0E945C03F801A681B781ED91FC9165
:1007200011978FE1F82280E2F82A0190F081E02D04
:10073000CD016F2D0995C801B6014E2D0E942603EB
:10074000C8010E9462031F910F91FF90EF90DF900C
:10075000CF900895EF92FF920F931F938C017B012E
:100760006AE0A70125E00E947F03C80160E1A701BC
:1007700025E00E947F031F910F91FF90EF90089555
:10078000CF92DF92EF92FF920F931F938C01F62E80
:100790006A01E22E0E945C03F801A681B781ED9107
:1007A000FC9111978FE1F8220190F081E02DCD01AD
:1007B0006F2D0995C801B601A6012E2D0E94F702E2
:1007C000C8010E9462031F910F91FF90EF90DF908C
:1007D000CF900895DF93CF930F92CDB7DEB767E048
:1007E000AE014F5F5F4F21E00E94C00389810F90EF
:1007F000CF91DF910895DF93CF930F92CDB7DEB7FE
:1008000067E1AE014F5F5F4F21E00E94C003898125
:1008100081700F90CF91DF910895CF93DF93EC011A
:100820000E94EA0386FF02C091E005C0CE010E944B
:10083000FB0391E09827892FDF91CF910895EF92E4
:10084000FF920F931F937C01162F042F0E945C03CD
:10085000F701A681B781ED91FC9111971F7110628C
:100860000190F081E02DCD01612F0995F701A6815E
:10087000B781ED91FC9111970190F081E02DCD01B0
:10088000602F0995C7010E9462031F910F91FF908D
:10089000EF900895FC0181E08083CF0160E04AE0A1
:1008A0000E941F040895EF92FF920F931F938C01F3
:1008B0007B010E945C03F801A681B781ED91FC9158
:1008C00011970190F081E02DCD0161E60995C801F5
:1008D000B701A701F80125810E94F702C8010E9413
:1008E0006203C80167E040E40E941F041F910F915A
:1008F000FF90EF900895FC01818160E00E94910DCE
:100900000895FC01818161E00E94910D08950F938B
:100910001F938C01FC0110820E947B04C80160E0DF
:100920004BE00E941F04C8010E948104C80167E0D7
:1009300040E30E941F041F910F910895CF93DF930E
:10094000EC018881882359F0CE010E94EA0380736C
:1009500011F481E004C0CE010E94870480E0DF91A1
:10096000CF9108950F931F938C0165E0F8014481A6
:100970000E941F04C80161E1F80145810E941F0423
:10098000C80162E1F80145810E941F04C8010E946C
:100990008704C8010E9468031F910F9108950F9367
:1009A0001F93CF93DF93EC018B010E94EA0307C0F2
:1009B000CE010E94EA03807311F0188203C088817F
:1009C0008823B1F7CE010E947B04CE010E944A0425
:1009D000CE010E945C03AE81BF81ED91FC91119725
:1009E0000190F081E02DCD0161EE0995CE010E94CC
:1009F0006203CE010E945C03AE81BF81ED91FC9148
:100A000011970190F081E02DCD0160EA0995CE01AA
:100A1000B8014D810E942603CE010E946203CE01DF
:100A20000E948104DF91CF911F910F910895EF9261
:100A3000FF920F931F938C017B010E947B04C801DE
:100A40006BE0A70125E00E947F03C8010E9481049A
:100A50001F910F91FF90EF9008950F931F938C01BA
:100A6000FC01838160E00E94910D6AE070E080E00B
:100A700090E00E94D70CF801838161E00E94910D03
:100A80006AE070E080E090E00E94D70C1F910F9127
:100A900008950F931F938C01FC01838161E00E94F4
:100AA0006B0DF801818161E00E946B0DF80182817C
:100AB00061E00E946B0DC8010E942D05C8010E94D3
:100AC0007B04C8010E946203F801A681B781ED9101
:100AD000FC9111970280F381E02DCD0109951F91C2
:100AE0000F9108956EBD0DB407FEFDCF8EB508952C
:100AF000089580EA91E09093BF018093BE0108952C
:100B00000E94D80280E00E94C20281E00E94C702D7
:100B1000089506C06AE070E080E090E00E94D70C83
:100B20008AE492E00E947D09892BA1F381E090E0A4
:100B300008951F938AE090E00E948905892B91F027
:100B40008AE492E00E94AE09182F8AE090E00E94A9
:100B50008905892B39F08AE492E00E94AE09212FA1
:100B6000382F02C02FEF3FEFC9011F9108958AE48B
:100B700092E040E056E960E070E00E94F70880E013
:100B800091E06CE670E04AE150E00E947E02089538
:100B9000DF93CF93CDB7DEB76A970FB6F894DEBF79
:100BA0000FBECDBF8AE492E066E071E00E945F0C68
:100BB00083E08A8FCE01019667E271E00E946302B2
:100BC0006A960FB6F894DEBF0FBECDBFCF91DF910E
:100BD00008950F931F93DF93CF93CDB7DEB76A9736
:100BE0000FB6F894DEBF0FBECDBF898F1A8E8E016F
:100BF0000F5F1F4FC80167E271E00E94630288EE39
:100C000093E0B8010E942802892B39F48AE492E02B
:100C10006DE271E00E945F0C3DC08AE492E063E403
:100C200071E00E94AB0B8AE492E0698D4AE050E0EB
:100C30000E94460B8AE492E06BE471E00E94AB0BE9
:100C40004D855E856F8578898AE492E022E030E008
:100C50000E94490C8AE492E060E571E00E94AB0BCF
:100C600049895A896B897C898AE492E022E030E0E4
:100C70000E94490C8AE492E065E571E00E94AB0BAA
:100C80004D895E896F89788D8AE492E022E030E0B8
:100C90000E944C0C6A960FB6F894DEBF0FBECDBF13
:100CA000CF91DF911F910F910895EF92FF920F93D3
:100CB0001F93DF93CF93CDB7DEB76A970FB6F89443
:100CC000DEBF0FBECDBF00E010E08AE090E00E94E2
:100CD0008905892B09F46EC08AE492E00E94AE096E
:100CE000C0978630910508F065C082309105E9F023
:100CF0008330910534F4009771F0019709F05AC0E0
:100D00000FC084309105D9F0843091059CF005978F
:100D100009F050C019C00E9499059A83898318C0B0
:100D20000E9499059C838B8313C00E9499059E8322
:100D30008D830EC00E94990598878F8309C00E94F9
:100D400099059A87898704C00E9499059C878B879B
:100D50000F5F1F4F0630110509F0B7CF82E08A8F71
:100D60008E010F5F1F4FC80167E271E00E946302AE
:100D70008091C0019091C1010197E1F48DE0E82ECE
:100D8000F12CEC0EFD1EF801619171918F018AE446
:100D900092E04AE050E00E94980B8AE492E06AE513
:100DA00071E00E94AB0B0E151F0569F78AE492E013
:100DB0000E949F0A6A960FB6F894DEBF0FBECDBFA1
:100DC000CF91DF911F910F91FF90EF900895EF92D7
:100DD000FF920F931F93DF93CF93CDB7DEB72F977B
:100DE0000FB6F894DEBF0FBECDBF19821A821B82E8
:100DF0001C82FE0135968BE0DF011D928A95E9F792
:100E000010E000E07E010894E11CF11C8AE492E00D
:100E10000E947D09892B41F46AE070E080E090E057
:100E20000E94D70C0F5F0AC08AE492E00E94AE09CC
:100E3000F701E10FF11D80831F5F00E0112331F006
:100E4000FE01E10FF11D80818B3321F00A3010F497
:100E50001E30E0F2CE010196FC01E10FF11D10827F
:100E60000E94AC002F960FB6F894DEBF0FBECDBF28
:100E7000CF91DF911F910F91FF90EF9008952F92E6
:100E80003F924F925F926F927F928F929F92AF921A
:100E9000BF92CF92DF92EF92FF920F931F93DF9357
:100EA000CF93CDB7DEB76B970FB6F894DEBF0FBE0A
:100EB000CDBF0E94E7060E94B60E7B018C016B8FAE
:100EC0000E94E7061B012C010E94E7063B014C0132
:100ED0000E94E7065B016C018AE492E063E471E042
:100EE0000E94AB0B8AE492E06E2D4AE050E00E9433
:100EF000460B8AE492E06BE471E00E94AB0B8AE45B
:100F000092E0B201A10122E030E00E94490C8AE4A3
:100F100092E060E571E00E94AB0B8AE492E0B401DC
:100F2000A30122E030E00E94490C8AE492E065E5EA
:100F300071E00E94AB0B8AE492E0B601A50122E0C9
:100F400030E00E944C0C8AE492E06CE571E00E9473
:100F50005F0C8AE492E00E947D09892BD1F38AE438
:100F600092E00E94AE09AA2797FDA095BA2FBC0176
:100F7000CD010E94E90E7B018C0120E030E04CEDB8
:100F800052E40E944A0E882339F48AE492E064E72E
:100F900071E00E945F0C26C0C801B70120E030E07C
:100FA00042EF52E40E944A0E8823E1F48AE492E080
:100FB0006AE871E00E945F0C8B8D898F2D863E86DA
:100FC0004F86588A698A7A8A8B8A9C8AAD8ABE8AB9
:100FD000CF8AD88E81E08A8FCE01019667E271E0D8
:100FE0000E9463026B960FB6F894DEBF0FBECDBFB2
:100FF000CF91DF911F910F91FF90EF90DF90CF90F5
:10100000BF90AF909F908F907F906F905F904F9028
:101010003F902F9008951F938AE492E00E947D09EB
:10102000892B09F451C08AE492E00E94AE0983360C
:10103000910519F40E94550647C08037910519F4AF
:101040000E943F0741C08237910541F58AE090E058
:101050000E948905892BC1F18AE492E00E948E09E1
:101060008136910591F48AE492E00E94AE0910E085
:1010700064E170E080E090E00E94D70C812F0E9434
:10108000E9051F5F1A30A1F71FC00E94E7060E9402
:10109000B60EDC01CB010E94E90516C0833791052D
:1010A00019F40E94C80510C0839771F420E030E065
:1010B0008091C0019091C101892B11F421E030E0B1
:1010C0003093C1012093C0011F91089508951F928C
:1010D0000F920FB60F9211242F933F934F938F933C
:1010E0009F93EF93FF934091C600209102023091AD
:1010F00003022F5F3F4F2F73307080910402909155
:1011000005022817390759F0E0910202F091030215
:10111000EE53FE4F40833093030220930202FF916F
:10112000EF919F918F914F913F912F910F900FBE13
:101130000F901F901895E0915602F0915702E05CD5
:10114000FF4F8191919120813181821B930B8F738D
:101150009070892B11F00E94660808951F920F92DB
:101160000FB60F9211242F933F934F935F936F937A
:101170007F938F939F93AF93BF93EF93FF932091B0
:101180004602309147028091480290914902281707
:10119000390731F48091C1008F7D8093C10016C062
:1011A000E0914802F0914902EA5FFD4F4081809151
:1011B000480290914902019660E470E00E941B1081
:1011C00090934902809348024093C600FF91EF91AB
:1011D000BF91AF919F918F917F916F915F914F914F
:1011E0003F912F910F900FBE0F901F901895AF92C7
:1011F000BF92DF92EF92FF920F931F93CF93DF93F3
:10120000EC017A018B01DD24403081EE580780E04B
:10121000680780E0780711F0DD24D39491E0A92ECF
:10122000B12CEC89FD89DD2069F0C5010E8C02C06E
:10123000880F991F0A94E2F7808360E079E08DE3DC
:1012400090E005C0108260E874E88EE190E0A801AB
:1012500097010E942E10215030404040504056953A
:1012600047953795279580E12030380720F0DD201D
:1012700011F0DD24D6CFE889F9893083EA89FB892A
:101280002083EE89FF89408121E030E0C9010A8C8A
:1012900002C0880F991F0A94E2F7482B4083EE8919
:1012A000FF894081C9010B8C02C0880F991F0A94E5
:1012B000E2F7482B4083EE89FF894081C9010C8CFD
:1012C00002C0880F991F0A94E2F7482B4083EE89E9
:1012D000FF8980810D8C02C0220F331F0A94E2F730
:1012E000209528232083DF91CF911F910F91FF90AC
:1012F000EF90DF90BF90AF900895DC011C96ED91C8
:10130000FC911D97E05CFF4F21913191808191818B
:10131000281B390B2F733070C9010895DC011C960E
:10132000ED91FC911D97E05CFF4F20813181E054ED
:10133000F040DF01AE5BBF4F8D919C911197281754
:10134000390719F42FEF3FEF07C08D919C91E80FFB
:10135000F91F8081282F30E0C9010895DC011C9617
:10136000ED91FC911D97E05CFF4F20813181E054AD
:10137000F040DF01AE5BBF4F8D919C911197281714
:10138000390719F42FEF3FEF10C08D919C91119701
:10139000E80FF91F20818D919C91119701968F7311
:1013A000907011969C938E9330E0C9010895FC01D2
:1013B00086859785DC01A05CBF4FFC01EE5BFF4F8B
:1013C0002D913C9111978081918128173907C1F7A0
:1013D0000895CF93DF93EC01462FEE85FF85E05C07
:1013E000FF4F80819181E054F040019660E470E00D
:1013F0000E941B109C01DF01AE5BBF4F8D919C9141
:10140000119728173907D1F3E05CFF4F8081918154
:10141000E054F040E80FF91F4083EE85FF85E05C63
:10142000FF4F31832083EE89FF89208181E090E0A6
:101430000D8C02C0880F991F0A94E2F7282B208395
:1014400081E090E0DF91CF91089510924D021092CB
:101450004C0288EE93E0A0E0B0E080934E029093BF
:101460004F02A0935002B09351028AEA91E0909308
:101470004B0280934A0282EC91E090935702809352
:10148000560286E092E0909359028093580285ECD0
:1014900090E090935B0280935A0284EC90E09093EA
:1014A0005D0280935C0280EC90E090935F028093F9
:1014B0005E0281EC90E0909361028093600286EC82
:1014C00090E0909363028093620284E080936402D0
:1014D00083E08093650287E08093660285E08093D5
:1014E000670281E0809368020895CF92DF92EF92C5
:1014F000FF920F931F93CF93DF937C016B018A01BF
:10150000C0E0D0E00FC0D6016D916D01D701ED9123
:10151000FC910190F081E02DC7010995C80FD91FFA
:10152000015010400115110571F7CE01DF91CF91E7
:101530001F910F91FF90EF90DF90CF900895EF9261
:10154000FF920F931F938C01DC01ED91FC910190B0
:10155000F081E02D6DE009957C01D801ED91FC91C1
:101560000190F081E02DC8016AE009959C012E0DE3
:101570003F1DC9011F910F91FF90EF900895CF93E8
:10158000DF93DB010D900020E9F71197A61BB70B45
:10159000EC01E881F9810280F381E02DAD0109952C
:1015A000DF91CF9108954F925F927F928F929F9299
:1015B000AF92BF92CF92DF92EF92FF920F931F9361
:1015C000DF93CF93CDB7DEB7A1970FB6F894DEBF08
:1015D0000FBECDBF2C01742ECB01223008F42AE0BF
:1015E00019A231E2C32ED12CCC0EDD1E822E9924FD
:1015F000AA24BB24672D752FA50194010E942E10EB
:1016000079018A01C801B701A50194010E94FC0F6C
:10161000472D461B0894C108D1084A3014F4405D98
:1016200001C0495CF6014083E114F1040105110594
:1016300021F07E2C5F2DC801DDCFC201B6010E94D2
:10164000BF0AA1960FB6F894DEBF0FBECDBFCF91F3
:10165000DF911F910F91FF90EF90DF90CF90BF909F
:10166000AF909F908F907F905F904F900895DC0196
:101670002115310541F4ED91FC910190F081E02DAF
:10168000642F099508950E94D30A0895EF92FF925E
:101690000F931F939A01E62EFF2400E010E0B8019B
:1016A000A7010E94370B1F910F91FF90EF900895B3
:1016B000CF92DF92EF92FF920F931F93CF93DF931E
:1016C000EC016A017B012115310541F4E881F981C2
:1016D0000190F081E02D642F09951FC02A3031055B
:1016E000D1F477FF17C0E881F9810190F081E02DF6
:1016F0006DE209958C0144275527BA014C195D0903
:101700006E097F09CE012AE00E94D30A9801280FB2
:10171000391F04C02AE00E94D30A9C01C901DF914D
:10172000CF911F910F91FF90EF90DF90CF90089590
:10173000EF92FF920F931F937B019A010027F7FC12
:101740000095102FB801A7010E94580B1F910F910F
:10175000FF90EF9008950E94BF0A08957F928F92A4
:101760009F92AF92BF92CF92DF92EF92FF920F9330
:101770001F93CF93DF934C017A018B01722ECB0123
:10178000BA0120E030E040E050E00E944A0E87FDC0
:1017900003C0C0E0D0E00EC0D401ED91FC910190F7
:1017A000F081E02DC4016DE20995EC0117FB109565
:1017B00017F9109520E030E040E05FE3AA240BC069
:1017C000CA01B90120E030E040E251E40E944E0E2F
:1017D0009B01AC01A394A71498F3C801B7010E9420
:1017E000E60D5B016C010E94BB0E7B018C01C40104
:1017F000B801A7012AE030E00E94370BC80FD91FBB
:10180000772039F0C4016AE971E00E94BF0AC80F6D
:10181000D91FC801B7010E94E70E9B01AC01C601A8
:10182000B5010E94E50D24C020E030E040E251E423
:101830000E94990F7B018C010E94B60E5B016C0126
:10184000CC24B7FCC094DC2CC401B601A5012AE06D
:1018500030E00E94580BC80FD91FC601B5010E9485
:10186000E90E9B01AC01C801B7010E94E50D7A9415
:101870007720D1F6CE01DF91CF911F910F91FF908C
:10188000EF90DF90CF90BF90AF909F908F907F9020
:1018900008950E94AE0B0895EF92FF920F931F934D
:1018A0007C010E94AE0B8C01C7010E949F0A080FA9
:1018B000191FC8011F910F91FF90EF900895EF92AB
:1018C000FF920F931F937C010E94BF0A8C01C701F6
:1018D0000E949F0A080F191FC8011F910F91FF90C6
:1018E000EF900895CF93DF930E94300D0E94B705CB
:1018F000CBE9D8E00E940B082097E1F30E949B08F7
:10190000F9CF1F920F920FB60F9211242F933F938E
:101910008F939F93AF93BF9380916D0290916E02CE
:10192000A0916F02B0917002309171020196A11DD9
:10193000B11D232F2D5F2D3720F02D570196A11DAE
:10194000B11D2093710280936D0290936E02A0935B
:101950006F02B09370028091690290916A02A09127
:101960006B02B0916C020196A11DB11D80936902BA
:1019700090936A02A0936B02B0936C02BF91AF91F7
:101980009F918F913F912F910F900FBE0F901F90BD
:1019900018958FB7F89420916D0230916E024091A6
:1019A0006F02509170028FBFB901CA0108959B0167
:1019B000AC017FB7F8948091690290916A02A0917E
:1019C0006B02B0916C0266B5A89B05C06F3F19F021
:1019D0000196A11DB11D7FBFBA2FA92F982F88276F
:1019E000860F911DA11DB11D62E0880F991FAA1FCE
:1019F000BB1F6A95D1F7BC012DC0FFB7F894809149
:101A0000690290916A02A0916B02B0916C02E6B5F6
:101A1000A89B05C0EF3F19F00196A11DB11DFFBFA6
:101A2000BA2FA92F982F88278E0F911DA11DB11DA8
:101A3000E2E0880F991FAA1FBB1FEA95D1F7861B0A
:101A4000970B885E9340C8F2215030404040504090
:101A500068517C4F211531054105510571F60895F6
:101A6000789484B5826084BD84B5816084BD85B579
:101A7000826085BD85B5816085BDEEE6F0E0808140
:101A800081608083E1E8F0E0108280818260808361
:101A9000808181608083E0E8F0E0808181608083E4
:101AA000E1EBF0E0808184608083E0EBF0E0808116
:101AB00081608083EAE7F0E08081846080838081B8
:101AC0008260808380818160808380818068808360
:101AD0001092C1000895482F50E0CA0186569F4FCA
:101AE000FC0124914A575F4FFA0184918823C1F089
:101AF000E82FF0E0EE0FFF1FE859FF4FA591B491DA
:101B0000662341F49FB7F8948C91209582238C939F
:101B10009FBF08959FB7F8948C91822B8C939FBFA1
:101B20000895482F50E0CA0182559F4FFC0124912F
:101B3000CA0186569F4FFC0194914A575F4FFA01A4
:101B40003491332309F440C0222351F1233071F042
:101B5000243028F42130A1F0223011F514C02630B1
:101B6000B1F02730C1F02430D9F404C08091800056
:101B70008F7703C0809180008F7D8093800010C09C
:101B800084B58F7702C084B58F7D84BD09C08091F4
:101B9000B0008F7703C08091B0008F7D8093B0003C
:101BA000E32FF0E0EE0FFF1FEE58FF4FA591B49129
:101BB0002FB7F894662321F48C919095892302C065
:101BC0008C91892B8C932FBF08955058BB27AA273F
:101BD0000ED075C166D130F06BD120F031F49F3F4B
:101BE00011F41EF45BC10EF4E095E7FB51C1E92F3F
:101BF00077D180F3BA17620773078407950718F047
:101C000071F49EF58FC10EF4E0950B2EBA2FA02D26
:101C10000B01B90190010C01CA01A0011124FF2799
:101C2000591B99F0593F50F4503E68F11A16F04094
:101C3000A22F232F342F4427585FF3CF4695379593
:101C40002795A795F0405395C9F77EF41F16BA0B58
:101C5000620B730B840BBAF09150A1F0FF0FBB1F06
:101C6000661F771F881FC2F70EC0BA0F621F731F4F
:101C7000841F48F4879577956795B795F7959E3FAC
:101C800008F0B3CF9395880F08F09927EE0F97953A
:101C900087950895D9D008F481E008950CD00FC13C
:101CA00007D140F0FED030F021F45F3F19F0F0C0D2
:101CB000511139C1F3C014D198F39923C9F35523B5
:101CC000B1F3951B550BBB27AA276217730784072F
:101CD00038F09F5F5F4F220F331F441FAA1FA9F3E5
:101CE00033D00E2E3AF0E0E830D091505040E695D7
:101CF000001CCAF729D0FE2F27D0660F771F881F38
:101D0000BB1F261737074807AB07B0E809F0BB0B26
:101D1000802DBF01FF2793585F4F2AF09E3F51054A
:101D200068F0B6C000C15F3FECF3983EDCF38695E7
:101D300077956795B795F7959F5FC9F7880F911DC0
:101D40009695879597F90895E1E0660F771F881FAC
:101D5000BB1F621773078407BA0720F0621B730B5F
:101D6000840BBA0BEE1F88F7E095089504D06894B1
:101D7000B111D9C00895BCD088F09F5790F0B92F09
:101D80009927B751A0F0D1F0660F771F881F991FD0
:101D90001AF0BA95C9F712C0B13081F0C3D0B1E0E2
:101DA0000895C0C0672F782F8827B85F39F0B93FF2
:101DB000CCF3869577956795B395D9F73EF49095D2
:101DC0008095709561957F4F8F4F9F4F0895E89450
:101DD00009C097FB3EF490958095709561957F4F73
:101DE0008F4F9F4F9923A9F0F92F96E9BB27939521
:101DF000F695879577956795B795F111F8CFFAF431
:101E0000BB0F11F460FF1BC06F5F7F4F8F4F9F4F61
:101E100016C0882311F096E911C0772321F09EE8BF
:101E2000872F762F05C0662371F096E8862F70E025
:101E300060E02AF09A95660F771F881FDAF7880FFF
:101E40009695879597F90895990F0008550FAA0B55
:101E5000E0E8FEEF16161706E807F907C0F01216BD
:101E60001306E407F50798F0621B730B840B950BC0
:101E700039F40A2661F0232B242B252B21F4089515
:101E80000A2609F4A140A6958FEF811D811D0895B2
:101E900097F99F6780E870E060E008959FEF80EC1D
:101EA000089500240A9416161706180609060895C0
:101EB00000240A9412161306140605060895092E26
:101EC0000394000C11F4882352F0BB0F40F4BF2B95
:101ED00011F460FF04C06F5F7F4F8F4F9F4F0895D5
:101EE00057FD9058440F551F59F05F3F71F04795CB
:101EF000880F97FB991F61F09F3F79F087950895B0
:101F0000121613061406551FF2CF4695F1DF08C0CE
:101F1000161617061806991FF1CF869571056105EB
:101F200008940895E894BB2766277727CB0197F993
:101F300008950BD0C4CFB5DF28F0BADF18F0952391
:101F400009F0A6CFABCF1124EECFCADFA0F3959F47
:101F5000D1F3950F50E0551F629FF001729FBB2790
:101F6000F00DB11D639FAA27F00DB11DAA1F649F3C
:101F70006627B00DA11D661F829F2227B00DA11DEF
:101F8000621F739FB00DA11D621F839FA00D611D75
:101F9000221F749F3327A00D611D231F849F600D96
:101FA000211D822F762F6A2F11249F5750408AF0CF
:101FB000E1F088234AF0EE0FFF1FBB1F661F771F5B
:101FC000881F91505040A9F79E3F510570F060CF97
:101FD000AACF5F3FECF3983EDCF386957795679543
:101FE000B795F795E7959F5FC1F7FE2B880F911D79
:101FF0009695879597F90895629FD001739FF00198
:10200000829FE00DF11D649FE00DF11D929FF00D88
:10201000839FF00D749FF00D659FF00D9927729FBF
:10202000B00DE11DF91F639FB00DE11DF91FBD014A
:10203000CF011124089597FB092E07260AD077FDBA
:1020400004D02ED006D000201AF4709561957F4FF1
:102050000895F6F7909581959F4F0895A1E21A2E65
:10206000AA1BBB1BFD010DC0AA1FBB1FEE1FFF1F3C
:10207000A217B307E407F50720F0A21BB30BE40B8C
:10208000F50B661F771F881F991F1A9469F76095D3
:102090007095809590959B01AC01BD01CF0108958D
:1020A000AA1BBB1B51E107C0AA1FBB1FA617B7077E
:1020B00010F0A61BB70B881F991F5A95A9F780959A
:1020C0009095BC01CD010895EE0FFF1F0590F4918E
:1020D000E02D0994911106C0803219F08950855085
:1020E000D0F708959927882708952F923F924F920D
:1020F0005F926F927F928F929F92AF92BF92CF9298
:10210000DF92EF92FF920F931F93CF93DF93CDB7A0
:10211000DEB7CA1BDB0B0FB6F894DEBF0FBECDBF18
:1021200009942A88398848885F846E847D848C84E9
:102130009B84AA84B984C884DF80EE80FD800C81F2
:102140001B81AA81B981CE0FD11D0FB6F894DEBFD5
:0C2150000FBECDBFED010895F894FFCF45
:10215C00626173737300436F6D6D697474696E673C
:10216C00205049442076616C75657320746F20454E
:10217C004550524F4D2E00636F707472004E6F209D
:10218C00726573706F6E73652072656365697665D1
:10219C00642E00496E6465783A200020503A200085
:1021AC0020493A200020443A200020005365742036
:1021BC0074686573652076616C7565733F2028794A
:1021CC002F6E290043616C6962726174696F6E20B5
:1021DC0063616E63656C65642E0053656E64696E35
:1021EC00672076616C7565732E002E000000000070
:1021FC0072058005780500000000E909750A7D0963
:06220C00AE098E09D7099E
:00000001FF
