:100000000C9464000C948C000C948C000C948C0068
:100010000C948C000C948C000C948C000C948C0030
:100020000C948C000C948C000C948C000C940903A0
:100030000C948C000C948C000C948C000C948C0010
:100040000C9475080C948C000C94F6040C943D05EB
:100050000C948C000C948C000C948C000C948C00F0
:100060000C948C000C948C000000000024002700ED
:100070002A0000000000250028002B0000000000DE
:1000800023002600290004040404040404040202DA
:100090000202020203030303030301020408102007
:1000A0004080010204081020010204081020000012
:1000B0000007000201000003040600000000000029
:1000C0000000DF00C402B40611241FBECFEFD8E049
:1000D000DEBFCDBF11E0A0E0B1E0E6E7F4E102C091
:1000E00005900D92AC38B107D9F712E0ACE8B1E059
:1000F00001C01D92AC36B107E1F710E0C8ECD0E0CA
:1001000004C02297FE010E94350AC23CD107C9F7FC
:100110000E9466080C94390A0C940000BF92CF929A
:10012000DF92EF92FF920F931F93CF93DF936C01B7
:100130007A01B22E8B01C0E0D0E013C0F601A68197
:10014000B781ED91FC9111970190F081E02DCD01E7
:10015000D8016D918D010995F701EC0FFD1F80838A
:100160002196CB1558F3DF91CF911F910F91FF90FE
:10017000EF90DF90CF90BF900895EF92FF920F9392
:100180001F93CF93DF937C01042FEB0110E00EC08F
:10019000D7011696ED91FC911797A081B1812D9111
:1001A0003C91CF016991F90109951F5F101780F308
:1001B000DF91CF911F910F91FF90EF90089585E00F
:1001C00080938F0188E080938D0187E080938E017A
:1001D00081E08093900180E18093910110929301DE
:1001E000109292010895FC01828160E00E947709DB
:1001F0000895FC01828161E00E94770908950F93C0
:100200001F938C010E94F300F801A681B781ED9144
:10021000FC9111970190F081E02DCD0162EE0995DE
:10022000C8010E94F9001F910F910895CF92DF92AB
:10023000EF92FF920F931F938C01F62E6A01E22E2C
:100240000E94F300F801A681B781ED91FC9111970E
:100250008FE1F82280E2F82A0190F081E02DCD01B3
:100260006F2D0995C801B6014E2D0E94BD00C80131
:100270000E94F9001F910F91FF90EF90DF90CF90B7
:100280000895EF92FF920F931F938C017B016AE018
:10029000A70125E00E941601C80160E1A70125E041
:1002A0000E9416011F910F91FF90EF900895CF9239
:1002B000DF92EF92FF920F931F938C01F62E6A014B
:1002C000E22E0E94F300F801A681B781ED91FC9126
:1002D00011978FE1F8220190F081E02DCD016F2D73
:1002E0000995C801B601A6012E2D0E948E00C801F5
:1002F0000E94F9001F910F91FF90EF90DF90CF9037
:100300000895DF93CF930F92CDB7DEB767E0AE01CC
:100310004F5F5F4F21E00E94570189810F90CF917D
:10032000DF910895EF92FF920F931F937C01162F98
:10033000042F0E94F300F701A681B781ED91FC9193
:1003400011971F7110620190F081E02DCD01612F96
:100350000995F701A681B781ED91FC911197019064
:10036000F081E02DCD01602F0995C7010E94F900B1
:100370001F910F91FF90EF900895FC0181E0808321
:10038000CF0160E04AE00E9492010895FC01818162
:1003900060E00E9477090895FC01818161E00E947C
:1003A000770908950F931F938C01FC0110820E941E
:1003B000C601C80160E04BE00E949201C8010E94A2
:1003C000CC01C80167E040E30E9492011F910F91A8
:1003D0000895CF93DF93EC018881882359F0CE01F3
:1003E0000E948101807311F481E004C0CE010E945B
:1003F000D20180E0DF91CF9108950F931F938C017C
:1004000065E0F80144810E949201C80161E1F801B0
:1004100045810E949201C80162E1F80145810E9474
:100420009201C8010E94D201C8010E94FF001F91E1
:100430000F9108950F931F93CF93DF93EC018B01DE
:100440000E94810107C0CE010E948101807311F0DA
:10045000188203C088818823B1F7CE010E94C601AB
:10046000CE010E94BD01CE010E94F300AE81BF818A
:10047000ED91FC9111970190F081E02DCD0161EE9D
:100480000995CE010E94F900CE010E94F300AE81D1
:10049000BF81ED91FC9111970190F081E02DCD018C
:1004A00060EA0995CE01B8014D810E94BD00CE01E0
:1004B0000E94F900CE010E94CC01DF91CF911F91E3
:1004C0000F910895EF92FF920F931F938C017B0180
:1004D0000E94C601C8016BE0A70125E00E94160139
:1004E000C8010E94CC011F910F91FF90EF900895D9
:1004F0000F931F938C01FC01838160E00E947709B8
:100500006AE070E080E090E00E94BD08F80183811D
:1005100061E00E9477096AE070E080E090E00E946C
:10052000BD081F910F9108950F931F938C01FC013B
:10053000838161E00E945109F801818161E00E949C
:100540005109F801828161E00E945109C8010E94AD
:100550007802C8010E94C601C8010E94F900F80192
:10056000A681B781ED91FC9111970280F381E02D76
:10057000CD0109951F910F9108956EBD0DB407FE31
:10058000FDCF8EB50895089586E791E0909395018B
:100590008093940108950E94EA0280E00E94D402B0
:1005A00081E00E94D90208959CB5937F982B9CBD51
:1005B00008952CB5382F33702C7F322B3CBD2DB5D0
:1005C00090E0959587959595879581702E7F822BE4
:1005D0008DBD08958DE061E00E9451098BE061E0DE
:1005E0000E9451098AE061E00E9451098DE060E0BB
:1005F0000E9477098BE060E00E9477098AE061E061
:100600000E9477098CB580618CBD8CB580648CBDEF
:1006100008951F920F920FB60F9211242F933F93BC
:100620004F935F936F937F938F939F93AF93BF93FA
:10063000EF93FF938091BB0187FF05C01092850067
:10064000109284002BC02091BB01332727FD3095E9
:100650008091960190E02817390704F58091BB013D
:10066000992787FD9095FC01EE0FFF1FE80FF91FFA
:10067000E956FE4F808186FF11C08091BB0199270A
:1006800087FD9095FC01EE0FFF1FE80FF91FE9565B
:10069000FE4F80818F7360E00E9477098091BB01DB
:1006A0008F5F8093BB012091BB01332727FD3095DD
:1006B0008091960190E0281739070CF04EC0809188
:1006C000BB018C300CF049C0209184003091850032
:1006D0008091BB01992787FD9095FC01EE0FFF1FCC
:1006E000E80FF91FE956FE4F81819281280F391FCB
:1006F00030938900209388008091BB01992787FD62
:100700009095FC01EE0FFF1FE80FF91FE956FE4F11
:10071000808186FF2AC08091BB01992787FD909533
:10072000FC01EE0FFF1FE80FF91FE956FE4F808115
:100730008F7361E00E94770918C080E49CE905C0CE
:100740008091840090918500049690938900809315
:1007500088008FEF8093BB0108C080918400909146
:10076000850084549C4948F3EBCFFF91EF91BF91F2
:10077000AF919F918F917F916F915F914F913F9139
:100780002F910F900FBE0F901F9018950F931F93EE
:100790008C018CE891E00E9441018CE891E0B80165
:1007A0000E941A028CE891E00E94E9018823D1F7A7
:1007B0006AE070E080E090E00E94BD081F910F9118
:1007C0000895CF92DF92EF92FF920F931F937C01D7
:1007D000C62ED42E84E061E00E94510984E060E0DE
:1007E0000E94770964E670E080E090E00E94BD0816
:1007F00084E061E00E94770964E670E080E090E0C8
:100800000E94BD0888E080938D0189E080938E016D
:1008100084E991E090939301809392010CE811E0B8
:10082000C8010E949402C801B7010E946202D092DE
:100830009101C0929001C8010E94FD011F910F918A
:10084000FF90EF90DF90CF900895EF92FF920F937B
:100850001F93DF93CF9300D000D00F92CDB7DEB7B8
:1008600084E492E00E940C06892B09F497C084E48A
:1008700092E00E943D068732910599F48CEB92E05C
:100880009B838A8381E68983CE01019660E071E0D3
:100890000E94C60384E492E066E071E00E9453087F
:1008A0007DC060EDE62E6FEFF62EE80EF91E14C047
:1008B000C901C0970A9780F4C70153E0880F991FB8
:1008C0005A95E1F7EE0CFF1CE80EF91E80ED9FEF44
:1008D000E80EF91EE20EF31E84E492E00E943D064B
:1008E0009C018D36910521F7C7018C5B92408551A3
:1008F000954050F084E492E06CE171E00E94500871
:1009000084E492E0B7011FC084E492E00E943D06B7
:100910008C018FEF0F3F1807B9F301361105C1F0B5
:1009200003361105A9F00637110591F0C801C097EB
:10093000049770F084E492E062E371E00E94500852
:1009400084E492E0B8014AE050E00E94310826C0F9
:10095000FB82EA8209838FEF9FEF9D838C83CE0118
:10096000019660E071E00E94C60384E492E06CE4CA
:1009700071E00E9450086A817B8184E492E04AE041
:1009800050E00E941E0884E492E064E571E00E9459
:10099000500884E492E069810E944E070F900F9006
:1009A0000F900F900F90CF91DF911F910F91FF90BB
:1009B000EF9008950F931F9304E412E0C80140E8FC
:1009C00055E260E070E00E9486058DE591E06CE6FE
:1009D00070E045E050E00E94E103C80163E671E089
:1009E0000E9453081F910F91089508951F920F922E
:1009F0000FB60F9211242F933F934F938F939F9392
:100A0000EF93FF934091C6002091FC013091FD01CE
:100A10002F5F3F4F2F7330708091FE019091FF0147
:100A20002817390759F0E091FC01F091FD01E454D9
:100A3000FE4F40833093FD012093FC01FF91EF9125
:100A40009F918F914F913F912F910F900FBE0F90DB
:100A50001F901895E0915002F0915102E05CFF4F19
:100A60008191919120813181821B930B8F739070C2
:100A7000892B11F00E94F50408951F920F920FB672
:100A80000F9211242F933F934F935F936F937F9314
:100A90008F939F93AF93BF93EF93FF932091400267
:100AA0003091410280914202909143022817390708
:100AB00031F48091C1008F7D8093C10016C0E09118
:100AC0004202F0914302E050FE4F40818091420289
:100AD00090914302019660E470E00E94EA099093CD
:100AE0004302809342024093C600FF91EF91BF9171
:100AF000AF919F918F917F916F915F914F913F91B6
:100B00002F910F900FBE0F901F901895AF92BF922C
:100B1000DF92EF92FF920F931F93CF93DF93EC013D
:100B20007A018B01DD24403081EE580780E06807B0
:100B300080E0780711F0DD24D39491E0A92EB12C48
:100B4000EC89FD89DD2069F0C5010E8C02C0880F9B
:100B5000991F0A94E2F7808360E079E08DE390E0EA
:100B600005C0108260E874E88EE190E0A80197016A
:100B70000E94FD0921503040404050405695479515
:100B80003795279580E12030380720F0DD2011F0DF
:100B9000DD24D6CFE889F9893083EA89FB8920836F
:100BA000EE89FF89408121E030E0C9010A8C02C052
:100BB000880F991F0A94E2F7482B4083EE89FF893A
:100BC0004081C9010B8C02C0880F991F0A94E2F77B
:100BD000482B4083EE89FF894081C9010C8C02C0FB
:100BE000880F991F0A94E2F7482B4083EE89FF890A
:100BF00080810D8C02C0220F331F0A94E2F72095EA
:100C000028232083DF91CF911F910F91FF90EF90C8
:100C1000DF90BF90AF900895DC011C96ED91FC91A0
:100C20001D97E05CFF4F2191319180819181281BBC
:100C3000390B2F733070C9010895DC011C96ED91BA
:100C4000FC911D97E05CFF4F20813181E054F04022
:100C5000DF01AE5BBF4F8D919C911197281739072B
:100C600019F42FEF3FEF07C08D919C91E80FF91F0A
:100C70008081282F30E0C9010895DC011C96ED9198
:100C8000FC911D97E05CFF4F20813181E054F040E2
:100C9000DF01AE5BBF4F8D919C91119728173907EB
:100CA00019F42FEF3FEF10C08D919C911197E80F31
:100CB000F91F20818D919C91119701968F739070EF
:100CC00011969C938E9330E0C9010895FC018685AE
:100CD0009785DC01A05CBF4FFC01EE5BFF4F2D91BF
:100CE0003C9111978081918128173907C1F70895A8
:100CF000CF93DF93EC01462FEE85FF85E05CFF4F3D
:100D000080819181E054F040019660E470E00E949F
:100D1000EA099C01DF01AE5BBF4F8D919C91119759
:100D200028173907D1F3E05CFF4F80819181E054AF
:100D3000F040E80FF91F4083EE85FF85E05CFF4F30
:100D400031832083EE89FF89208181E090E00D8C42
:100D500002C0880F991F0A94E2F7282B208381E0B4
:100D600090E0DF91CF9108951092470210924602D1
:100D700088EE93E0A0E0B0E08093480290934902AF
:100D8000A0934A02B0934B0280E891E09093450211
:100D9000809344028CEB91E0909351028093500237
:100DA00080E092E0909353028093520285EC90E0B1
:100DB000909355028093540284EC90E090935702F4
:100DC0008093560280EC90E09093590280935802F1
:100DD00081EC90E090935B0280935A0286EC90E065
:100DE00090935D0280935C0284E080935E0283E0D6
:100DF00080935F0287E08093600285E080936102C8
:100E000081E0809362020895CF92DF92EF92FF9289
:100E10000F931F93CF93DF937C016B018A01C0E096
:100E2000D0E00FC0D6016D916D01D701ED91FC911D
:100E30000190F081E02DC7010995C80FD91F01501D
:100E400010400115110571F7CE01DF91CF911F916F
:100E50000F91FF90EF90DF90CF900895EF92FF9267
:100E60000F931F938C01DC01ED91FC910190F081B7
:100E7000E02D6DE009957C01D801ED91FC91019088
:100E8000F081E02DC8016AE009959C012E0D3F1DFF
:100E9000C9011F910F91FF90EF900895EF92FF927B
:100EA0000F931F937C01DC01ED91FC910190F08187
:100EB000E02D09958C01C7010E942E07080F191F0C
:100EC000C8011F910F91FF90EF900895CF93DF938A
:100ED000DB010D900020E9F71197A61BB70BEC0181
:100EE000E881F9810280F381E02DAD010995DF9160
:100EF000CF9108954F925F927F928F929F92AF927F
:100F0000BF92CF92DF92EF92FF920F931F93DF93E6
:100F1000CF93CDB7DEB7A1970FB6F894DEBF0FBE63
:100F2000CDBF2C01742ECB01223008F42AE019A287
:100F300031E2C32ED12CCC0EDD1E822E9924AA24A0
:100F4000BB24672D752FA50194010E94FD0979012D
:100F50008A01C801B701A50194010E94CB09472D60
:100F6000461B0894C108D1084A3014F4405D01C002
:100F7000495CF6014083E114F1040105110521F0FB
:100F80007E2C5F2DC801DDCFC201B6010E9466072D
:100F9000A1960FB6F894DEBF0FBECDBFCF91DF9103
:100FA0001F910F91FF90EF90DF90CF90BF90AF9087
:100FB0009F908F907F905F904F900895CF92DF9297
:100FC000EF92FF920F931F93CF93DF93EC016A018F
:100FD0007B012115310541F4E881F9810190F0810F
:100FE000E02D642F09951FC02A303105D1F477FF19
:100FF00017C0E881F9810190F081E02D6DE209953B
:101000008C0144275527BA014C195D096E097F09E7
:10101000CE012AE00E947A079801280F391F04C0E8
:101020002AE00E947A079C01C901DF91CF911F91AC
:101030000F91FF90EF90DF90CF900895EF92FF9285
:101040000F931F937B019A010027F7FC0095102F47
:10105000B801A7010E94DE071F910F91FF90EF904A
:101060000895CF92DF92EF92FF920F931F936C013E
:101070007B019A010027F7FC0095102FB801A7010A
:101080000E94DE078C01C6010E942E07080F191F5F
:10109000C8011F910F91FF90EF90DF90CF900895BE
:1010A0000E9466070895EF92FF920F931F937C01B1
:1010B0000E9466078C01C7010E942E07080F191FA6
:1010C000C8011F910F91FF90EF900895CF93DF9388
:1010D0000E9416090E94DA04CAE2D5E00E942504A3
:1010E0002097E1F30E942A05F9CF1F920F920FB6C5
:1010F0000F9211242F933F938F939F93AF93BF939E
:101100008091670290916802A0916902B0916A0291
:1011100030916B020196A11DB11D232F2D5F2D373C
:1011200020F02D570196A11DB11D20936B028093D5
:10113000670290936802A0936902B0936A0280915B
:10114000630290916402A0916502B09166020196DB
:10115000A11DB11D8093630290936402A093650268
:10116000B0936602BF91AF919F918F913F912F9164
:101170000F900FBE0F901F9018959B01AC017FB789
:10118000F8948091630290916402A0916502B091FD
:10119000660266B5A89B05C06F3F19F00196A11DB8
:1011A000B11D7FBFBA2FA92F982F8827860F911DB9
:1011B000A11DB11D62E0880F991FAA1FBB1F6A9570
:1011C000D1F7BC012DC0FFB7F894809163029091D4
:1011D0006402A0916502B0916602E6B5A89B05C0C5
:1011E000EF3F19F00196A11DB11DFFBFBA2FA92F26
:1011F000982F88278E0F911DA11DB11DE2E0880F49
:10120000991FAA1FBB1FEA95D1F7861B970B885E13
:101210009340C8F2215030404040504068517C4FCC
:10122000211531054105510571F60895789484B56D
:10123000826084BD84B5816084BD85B5826085BDD2
:1012400085B5816085BDEEE6F0E0808181608083B8
:10125000E1E8F0E01082808182608083808181609B
:101260008083E0E8F0E0808181608083E1EBF0E062
:10127000808184608083E0EBF0E080818160808306
:10128000EAE7F0E0808184608083808182608083EF
:101290008081816080838081806880831092C1001A
:1012A0000895482F50E0CA0186569F4FFC012491B3
:1012B0004A575F4FFA0184918823C1F0E82FF0E08C
:1012C000EE0FFF1FE859FF4FA591B491662341F43B
:1012D0009FB7F8948C91209582238C939FBF08959B
:1012E0009FB7F8948C91822B8C939FBF0895482FC1
:1012F00050E0CA0182559F4FFC012491CA018656D5
:101300009F4FFC0194914A575F4FFA013491332368
:1013100009F440C0222351F1233071F0243028F425
:101320002130A1F0223011F514C02630B1F0273061
:10133000C1F02430D9F404C0809180008F7703C0BD
:10134000809180008F7D8093800010C084B58F775E
:1013500002C084B58F7D84BD09C08091B0008F77B5
:1013600003C08091B0008F7D8093B000E32FF0E048
:10137000EE0FFF1FEE58FF4FA591B4912FB7F894D1
:10138000662321F48C919095892302C08C91892B3E
:101390008C932FBF0895629FD001739FF001829FAD
:1013A000E00DF11D649FE00DF11D929FF00D839FF4
:1013B000F00D749FF00D659FF00D9927729FB00D91
:1013C000E11DF91F639FB00DE11DF91FBD01CF01A4
:1013D0001124089597FB092E07260AD077FD04D023
:1013E0002ED006D000201AF4709561957F4F089595
:1013F000F6F7909581959F4F0895A1E21A2EAA1BAA
:10140000BB1BFD010DC0AA1FBB1FEE1FFF1FA217B4
:10141000B307E407F50720F0A21BB30BE40BF50BB1
:10142000661F771F881F991F1A9469F7609570953A
:10143000809590959B01AC01BD01CF010895AA1B39
:10144000BB1B51E107C0AA1FBB1FA617B70710F0AF
:10145000A61BB70B881F991F5A95A9F780959095E1
:10146000BC01CD010895EE0FFF1F0590F491E02D12
:061470000994F894FFCF7F
:10147600636F7074720053656E64696E672073746F
:101486006F7020636F6D6D616E642E00496E7661BC
:101496006C6964206D6F746F722073706565643A51
:1014A6002000496E76616C6964206D6F746F7220DE
:1014B60073656C656374696F6E3A20007370656559
:1014C600643A2000206D6F746F723A200062617377
:1014D600737300426567696E6E696E67202E2E2EE5
:1014E600200000000000BD02CB02C3020000000085
:0C14F600780604070C063D061D0666067D
:00000001FF
